{
  "contractName": "TetherUSD",
  "abi": [
    {
      "inputs": [],
      "stateMutability": "nonpayable",
      "type": "constructor"
    },
    {
      "inputs": [],
      "name": "InvalidShortString",
      "type": "error"
    },
    {
      "inputs": [
        {
          "internalType": "string",
          "name": "str",
          "type": "string"
        }
      ],
      "name": "StringTooLong",
      "type": "error"
    },
    {
      "anonymous": false,
      "inputs": [
        {
          "indexed": true,
          "internalType": "address",
          "name": "owner",
          "type": "address"
        },
        {
          "indexed": true,
          "internalType": "address",
          "name": "spender",
          "type": "address"
        },
        {
          "indexed": false,
          "internalType": "uint256",
          "name": "value",
          "type": "uint256"
        }
      ],
      "name": "Approval",
      "type": "event"
    },
    {
      "anonymous": false,
      "inputs": [],
      "name": "EIP712DomainChanged",
      "type": "event"
    },
    {
      "anonymous": false,
      "inputs": [
        {
          "indexed": true,
          "internalType": "address",
          "name": "previousOwner",
          "type": "address"
        },
        {
          "indexed": true,
          "internalType": "address",
          "name": "newOwner",
          "type": "address"
        }
      ],
      "name": "OwnershipTransferred",
      "type": "event"
    },
    {
      "anonymous": false,
      "inputs": [
        {
          "indexed": false,
          "internalType": "address",
          "name": "account",
          "type": "address"
        }
      ],
      "name": "Paused",
      "type": "event"
    },
    {
      "anonymous": false,
      "inputs": [
        {
          "indexed": true,
          "internalType": "address",
          "name": "from",
          "type": "address"
        },
        {
          "indexed": true,
          "internalType": "address",
          "name": "to",
          "type": "address"
        },
        {
          "indexed": false,
          "internalType": "uint256",
          "name": "value",
          "type": "uint256"
        }
      ],
      "name": "Transfer",
      "type": "event"
    },
    {
      "anonymous": false,
      "inputs": [
        {
          "indexed": false,
          "internalType": "address",
          "name": "account",
          "type": "address"
        }
      ],
      "name": "Unpaused",
      "type": "event"
    },
    {
      "inputs": [],
      "name": "DOMAIN_SEPARATOR",
      "outputs": [
        {
          "internalType": "bytes32",
          "name": "",
          "type": "bytes32"
        }
      ],
      "stateMutability": "view",
      "type": "function",
      "constant": true
    },
    {
      "inputs": [
        {
          "internalType": "address",
          "name": "owner",
          "type": "address"
        },
        {
          "internalType": "address",
          "name": "spender",
          "type": "address"
        }
      ],
      "name": "allowance",
      "outputs": [
        {
          "internalType": "uint256",
          "name": "",
          "type": "uint256"
        }
      ],
      "stateMutability": "view",
      "type": "function",
      "constant": true
    },
    {
      "inputs": [
        {
          "internalType": "address",
          "name": "spender",
          "type": "address"
        },
        {
          "internalType": "uint256",
          "name": "amount",
          "type": "uint256"
        }
      ],
      "name": "approve",
      "outputs": [
        {
          "internalType": "bool",
          "name": "",
          "type": "bool"
        }
      ],
      "stateMutability": "nonpayable",
      "type": "function"
    },
    {
      "inputs": [
        {
          "internalType": "address",
          "name": "account",
          "type": "address"
        }
      ],
      "name": "balanceOf",
      "outputs": [
        {
          "internalType": "uint256",
          "name": "",
          "type": "uint256"
        }
      ],
      "stateMutability": "view",
      "type": "function",
      "constant": true
    },
    {
      "inputs": [
        {
          "internalType": "uint256",
          "name": "amount",
          "type": "uint256"
        }
      ],
      "name": "burn",
      "outputs": [],
      "stateMutability": "nonpayable",
      "type": "function"
    },
    {
      "inputs": [
        {
          "internalType": "address",
          "name": "account",
          "type": "address"
        },
        {
          "internalType": "uint256",
          "name": "amount",
          "type": "uint256"
        }
      ],
      "name": "burnFrom",
      "outputs": [],
      "stateMutability": "nonpayable",
      "type": "function"
    },
    {
      "inputs": [
        {
          "internalType": "address",
          "name": "spender",
          "type": "address"
        },
        {
          "internalType": "uint256",
          "name": "subtractedValue",
          "type": "uint256"
        }
      ],
      "name": "decreaseAllowance",
      "outputs": [
        {
          "internalType": "bool",
          "name": "",
          "type": "bool"
        }
      ],
      "stateMutability": "nonpayable",
      "type": "function"
    },
    {
      "inputs": [],
      "name": "eip712Domain",
      "outputs": [
        {
          "internalType": "bytes1",
          "name": "fields",
          "type": "bytes1"
        },
        {
          "internalType": "string",
          "name": "name",
          "type": "string"
        },
        {
          "internalType": "string",
          "name": "version",
          "type": "string"
        },
        {
          "internalType": "uint256",
          "name": "chainId",
          "type": "uint256"
        },
        {
          "internalType": "address",
          "name": "verifyingContract",
          "type": "address"
        },
        {
          "internalType": "bytes32",
          "name": "salt",
          "type": "bytes32"
        },
        {
          "internalType": "uint256[]",
          "name": "extensions",
          "type": "uint256[]"
        }
      ],
      "stateMutability": "view",
      "type": "function",
      "constant": true
    },
    {
      "inputs": [
        {
          "internalType": "address",
          "name": "spender",
          "type": "address"
        },
        {
          "internalType": "uint256",
          "name": "addedValue",
          "type": "uint256"
        }
      ],
      "name": "increaseAllowance",
      "outputs": [
        {
          "internalType": "bool",
          "name": "",
          "type": "bool"
        }
      ],
      "stateMutability": "nonpayable",
      "type": "function"
    },
    {
      "inputs": [],
      "name": "name",
      "outputs": [
        {
          "internalType": "string",
          "name": "",
          "type": "string"
        }
      ],
      "stateMutability": "view",
      "type": "function",
      "constant": true
    },
    {
      "inputs": [
        {
          "internalType": "address",
          "name": "owner",
          "type": "address"
        }
      ],
      "name": "nonces",
      "outputs": [
        {
          "internalType": "uint256",
          "name": "",
          "type": "uint256"
        }
      ],
      "stateMutability": "view",
      "type": "function",
      "constant": true
    },
    {
      "inputs": [],
      "name": "owner",
      "outputs": [
        {
          "internalType": "address",
          "name": "",
          "type": "address"
        }
      ],
      "stateMutability": "view",
      "type": "function",
      "constant": true
    },
    {
      "inputs": [],
      "name": "paused",
      "outputs": [
        {
          "internalType": "bool",
          "name": "",
          "type": "bool"
        }
      ],
      "stateMutability": "view",
      "type": "function",
      "constant": true
    },
    {
      "inputs": [
        {
          "internalType": "address",
          "name": "owner",
          "type": "address"
        },
        {
          "internalType": "address",
          "name": "spender",
          "type": "address"
        },
        {
          "internalType": "uint256",
          "name": "value",
          "type": "uint256"
        },
        {
          "internalType": "uint256",
          "name": "deadline",
          "type": "uint256"
        },
        {
          "internalType": "uint8",
          "name": "v",
          "type": "uint8"
        },
        {
          "internalType": "bytes32",
          "name": "r",
          "type": "bytes32"
        },
        {
          "internalType": "bytes32",
          "name": "s",
          "type": "bytes32"
        }
      ],
      "name": "permit",
      "outputs": [],
      "stateMutability": "nonpayable",
      "type": "function"
    },
    {
      "inputs": [],
      "name": "renounceOwnership",
      "outputs": [],
      "stateMutability": "nonpayable",
      "type": "function"
    },
    {
      "inputs": [],
      "name": "symbol",
      "outputs": [
        {
          "internalType": "string",
          "name": "",
          "type": "string"
        }
      ],
      "stateMutability": "view",
      "type": "function",
      "constant": true
    },
    {
      "inputs": [],
      "name": "totalSupply",
      "outputs": [
        {
          "internalType": "uint256",
          "name": "",
          "type": "uint256"
        }
      ],
      "stateMutability": "view",
      "type": "function",
      "constant": true
    },
    {
      "inputs": [
        {
          "internalType": "address",
          "name": "to",
          "type": "address"
        },
        {
          "internalType": "uint256",
          "name": "amount",
          "type": "uint256"
        }
      ],
      "name": "transfer",
      "outputs": [
        {
          "internalType": "bool",
          "name": "",
          "type": "bool"
        }
      ],
      "stateMutability": "nonpayable",
      "type": "function"
    },
    {
      "inputs": [
        {
          "internalType": "address",
          "name": "from",
          "type": "address"
        },
        {
          "internalType": "address",
          "name": "to",
          "type": "address"
        },
        {
          "internalType": "uint256",
          "name": "amount",
          "type": "uint256"
        }
      ],
      "name": "transferFrom",
      "outputs": [
        {
          "internalType": "bool",
          "name": "",
          "type": "bool"
        }
      ],
      "stateMutability": "nonpayable",
      "type": "function"
    },
    {
      "inputs": [
        {
          "internalType": "address",
          "name": "newOwner",
          "type": "address"
        }
      ],
      "name": "transferOwnership",
      "outputs": [],
      "stateMutability": "nonpayable",
      "type": "function"
    },
    {
      "inputs": [],
      "name": "pause",
      "outputs": [],
      "stateMutability": "nonpayable",
      "type": "function"
    },
    {
      "inputs": [],
      "name": "unpause",
      "outputs": [],
      "stateMutability": "nonpayable",
      "type": "function"
    },
    {
      "inputs": [
        {
          "internalType": "address",
          "name": "to",
          "type": "address"
        },
        {
          "internalType": "uint256",
          "name": "amount",
          "type": "uint256"
        }
      ],
      "name": "mint",
      "outputs": [],
      "stateMutability": "nonpayable",
      "type": "function"
    },
    {
      "inputs": [],
      "name": "decimals",
      "outputs": [
        {
          "internalType": "uint8",
          "name": "",
          "type": "uint8"
        }
      ],
      "stateMutability": "pure",
      "type": "function",
      "constant": true
    }
  ],
  "bytecode": "0x6101606040523480156200001257600080fd5b506040518060400160405280600a81526020016915195d1a195c881554d160b21b81525080604051806040016040528060018152602001603160f81b8152506040518060400160405280600a81526020016915195d1a195c881554d160b21b815250604051806040016040528060048152602001631554d11560e21b8152508160039081620000a2919062000469565b506004620000b1828262000469565b50506005805460ff1916905550620000c933620001ae565b620000d682600662000208565b61012052620000e781600762000208565b61014052815160208084019190912060e052815190820120610100524660a0526200017560e05161010051604080517f8b73c3c69bb8fe3d512ecc4cf759cc79239f7b179b0ffacaa9a75d522b39400f60208201529081019290925260608201524660808201523060a082015260009060c00160405160208183030381529060405280519060200120905090565b60805250503060c05250620001a833620001926006600a62000648565b620001a2906301406f4062000660565b62000241565b62000705565b600580546001600160a01b03838116610100818102610100600160a81b031985161790945560405193909204169182907f8be0079c531659141344cd1fd0a4f28419497f9722a3daafe3b4186f6b6457e090600090a35050565b60006020835110156200022857620002208362000316565b90506200023b565b8162000235848262000469565b5060ff90505b92915050565b6001600160a01b0382166200029d5760405162461bcd60e51b815260206004820152601f60248201527f45524332303a206d696e7420746f20746865207a65726f20616464726573730060448201526064015b60405180910390fd5b620002ab6000838362000359565b8060026000828254620002bf91906200067a565b90915550506001600160a01b038216600081815260208181526040808320805486019055518481527fddf252ad1be2c89b69c2b068fc378daa952ba7f163c4a11628f55a4df523b3ef910160405180910390a35050565b600080829050601f8151111562000344578260405163305a27a960e01b815260040162000294919062000690565b80516200035182620006e0565b179392505050565b620003636200037b565b620003768383836001600160e01b038416565b505050565b60055460ff1615620003c35760405162461bcd60e51b815260206004820152601060248201526f14185d5cd8589b194e881c185d5cd95960821b604482015260640162000294565b565b634e487b7160e01b600052604160045260246000fd5b600181811c90821680620003f057607f821691505b6020821081036200041157634e487b7160e01b600052602260045260246000fd5b50919050565b601f8211156200037657600081815260208120601f850160051c81016020861015620004405750805b601f850160051c820191505b8181101562000461578281556001016200044c565b505050505050565b81516001600160401b03811115620004855762000485620003c5565b6200049d81620004968454620003db565b8462000417565b602080601f831160018114620004d55760008415620004bc5750858301515b600019600386901b1c1916600185901b17855562000461565b600085815260208120601f198616915b828110156200050657888601518255948401946001909101908401620004e5565b5085821015620005255787850151600019600388901b60f8161c191681555b5050505050600190811b01905550565b634e487b7160e01b600052601160045260246000fd5b600181815b808511156200058c57816000190482111562000570576200057062000535565b808516156200057e57918102915b93841c939080029062000550565b509250929050565b600082620005a5575060016200023b565b81620005b4575060006200023b565b8160018114620005cd5760028114620005d857620005f8565b60019150506200023b565b60ff841115620005ec57620005ec62000535565b50506001821b6200023b565b5060208310610133831016604e8410600b84101617156200061d575081810a6200023b565b6200062983836200054b565b806000190482111562000640576200064062000535565b029392505050565b60006200065960ff84168362000594565b9392505050565b80820281158282048414176200023b576200023b62000535565b808201808211156200023b576200023b62000535565b600060208083528351808285015260005b81811015620006bf57858101830151858201604001528201620006a1565b506000604082860101526040601f19601f8301168501019250505092915050565b80516020808301519190811015620004115760001960209190910360031b1b16919050565b60805160a05160c05160e0516101005161012051610140516116d76200076060003960006104f6015260006104cb01526000610c1001526000610be801526000610b4301526000610b6d01526000610b9701526116d76000f3fe608060405234801561001057600080fd5b50600436106101585760003560e01c8063715018a6116100c357806395d89b411161007c57806395d89b41146102cb578063a457c2d7146102d3578063a9059cbb146102e6578063d505accf146102f9578063dd62ed3e1461030c578063f2fde38b1461031f57600080fd5b8063715018a61461025157806379cc6790146102595780637ecebe001461026c5780638456cb591461027f57806384b0196e146102875780638da5cb5b146102a257600080fd5b8063395093511161011557806339509351146101da5780633f4ba83a146101ed57806340c10f19146101f757806342966c681461020a5780635c975abb1461021d57806370a082311461022857600080fd5b806306fdde031461015d578063095ea7b31461017b57806318160ddd1461019e57806323b872dd146101b0578063313ce567146101c35780633644e515146101d2575b600080fd5b610165610332565b604051610172919061142a565b60405180910390f35b61018e610189366004611460565b6103c4565b6040519015158152602001610172565b6002545b604051908152602001610172565b61018e6101be36600461148a565b6103de565b60405160068152602001610172565b6101a2610402565b61018e6101e8366004611460565b610411565b6101f5610433565b005b6101f5610205366004611460565b610445565b6101f56102183660046114c6565b61045b565b60055460ff1661018e565b6101a26102363660046114df565b6001600160a01b031660009081526020819052604090205490565b6101f5610468565b6101f5610267366004611460565b61047a565b6101a261027a3660046114df565b61048f565b6101f56104ad565b61028f6104bd565b60405161017297969594939291906114fa565b60055461010090046001600160a01b03166040516001600160a01b039091168152602001610172565b610165610546565b61018e6102e1366004611460565b610555565b61018e6102f4366004611460565b6105d5565b6101f5610307366004611590565b6105e3565b6101a261031a366004611603565b610747565b6101f561032d3660046114df565b610772565b60606003805461034190611636565b80601f016020809104026020016040519081016040528092919081815260200182805461036d90611636565b80156103ba5780601f1061038f576101008083540402835291602001916103ba565b820191906000526020600020905b81548152906001019060200180831161039d57829003601f168201915b5050505050905090565b6000336103d28185856107e8565b60019150505b92915050565b6000336103ec85828561090d565b6103f7858585610987565b506001949350505050565b600061040c610b36565b905090565b6000336103d28185856104248383610747565b61042e919061166a565b6107e8565b61043b610c61565b610443610cc1565b565b61044d610c61565b6104578282610d13565b5050565b6104653382610dde565b50565b610470610c61565b6104436000610f14565b61048582338361090d565b6104578282610dde565b6001600160a01b0381166000908152600860205260408120546103d8565b6104b5610c61565b610443610f6e565b6000606080828080836104f17f00000000000000000000000000000000000000000000000000000000000000006006610fab565b61051c7f00000000000000000000000000000000000000000000000000000000000000006007610fab565b60408051600080825260208201909252600f60f81b9b939a50919850469750309650945092509050565b60606004805461034190611636565b600033816105638286610747565b9050838110156105c85760405162461bcd60e51b815260206004820152602560248201527f45524332303a2064656372656173656420616c6c6f77616e63652062656c6f77604482015264207a65726f60d81b60648201526084015b60405180910390fd5b6103f782868684036107e8565b6000336103d2818585610987565b834211156106335760405162461bcd60e51b815260206004820152601d60248201527f45524332305065726d69743a206578706972656420646561646c696e6500000060448201526064016105bf565b60007f6e71edae12b1b97f4d1f60370fef10105fa2faae0126114a169c64845d6126c98888886106628c611056565b6040805160208101969096526001600160a01b0394851690860152929091166060840152608083015260a082015260c0810186905260e00160405160208183030381529060405280519060200120905060006106bd8261107e565b905060006106cd828787876110ab565b9050896001600160a01b0316816001600160a01b0316146107305760405162461bcd60e51b815260206004820152601e60248201527f45524332305065726d69743a20696e76616c6964207369676e6174757265000060448201526064016105bf565b61073b8a8a8a6107e8565b50505050505050505050565b6001600160a01b03918216600090815260016020908152604080832093909416825291909152205490565b61077a610c61565b6001600160a01b0381166107df5760405162461bcd60e51b815260206004820152602660248201527f4f776e61626c653a206e6577206f776e657220697320746865207a65726f206160448201526564647265737360d01b60648201526084016105bf565b61046581610f14565b6001600160a01b03831661084a5760405162461bcd60e51b8152602060048201526024808201527f45524332303a20617070726f76652066726f6d20746865207a65726f206164646044820152637265737360e01b60648201526084016105bf565b6001600160a01b0382166108ab5760405162461bcd60e51b815260206004820152602260248201527f45524332303a20617070726f766520746f20746865207a65726f206164647265604482015261737360f01b60648201526084016105bf565b6001600160a01b0383811660008181526001602090815260408083209487168084529482529182902085905590518481527f8c5be1e5ebec7d5bd14f71427d1e84f3dd0314c0f7b2291e5b200ac8c7c3b92591015b60405180910390a3505050565b60006109198484610747565b9050600019811461098157818110156109745760405162461bcd60e51b815260206004820152601d60248201527f45524332303a20696e73756666696369656e7420616c6c6f77616e636500000060448201526064016105bf565b61098184848484036107e8565b50505050565b6001600160a01b0383166109eb5760405162461bcd60e51b815260206004820152602560248201527f45524332303a207472616e736665722066726f6d20746865207a65726f206164604482015264647265737360d81b60648201526084016105bf565b6001600160a01b038216610a4d5760405162461bcd60e51b815260206004820152602360248201527f45524332303a207472616e7366657220746f20746865207a65726f206164647260448201526265737360e81b60648201526084016105bf565b610a588383836110d3565b6001600160a01b03831660009081526020819052604090205481811015610ad05760405162461bcd60e51b815260206004820152602660248201527f45524332303a207472616e7366657220616d6f756e7420657863656564732062604482015265616c616e636560d01b60648201526084016105bf565b6001600160a01b03848116600081815260208181526040808320878703905593871680835291849020805487019055925185815290927fddf252ad1be2c89b69c2b068fc378daa952ba7f163c4a11628f55a4df523b3ef910160405180910390a3610981565b6000306001600160a01b037f000000000000000000000000000000000000000000000000000000000000000016148015610b8f57507f000000000000000000000000000000000000000000000000000000000000000046145b15610bb957507f000000000000000000000000000000000000000000000000000000000000000090565b61040c604080517f8b73c3c69bb8fe3d512ecc4cf759cc79239f7b179b0ffacaa9a75d522b39400f60208201527f0000000000000000000000000000000000000000000000000000000000000000918101919091527f000000000000000000000000000000000000000000000000000000000000000060608201524660808201523060a082015260009060c00160405160208183030381529060405280519060200120905090565b6005546001600160a01b036101009091041633146104435760405162461bcd60e51b815260206004820181905260248201527f4f776e61626c653a2063616c6c6572206973206e6f7420746865206f776e657260448201526064016105bf565b610cc96110e0565b6005805460ff191690557f5db9ee0a495bf2e6ff9c91a7834c1ba4fdd244a5e8aa4e537bd38aeae4b073aa335b6040516001600160a01b03909116815260200160405180910390a1565b6001600160a01b038216610d695760405162461bcd60e51b815260206004820152601f60248201527f45524332303a206d696e7420746f20746865207a65726f20616464726573730060448201526064016105bf565b610d75600083836110d3565b8060026000828254610d87919061166a565b90915550506001600160a01b038216600081815260208181526040808320805486019055518481527fddf252ad1be2c89b69c2b068fc378daa952ba7f163c4a11628f55a4df523b3ef910160405180910390a35050565b6001600160a01b038216610e3e5760405162461bcd60e51b815260206004820152602160248201527f45524332303a206275726e2066726f6d20746865207a65726f206164647265736044820152607360f81b60648201526084016105bf565b610e4a826000836110d3565b6001600160a01b03821660009081526020819052604090205481811015610ebe5760405162461bcd60e51b815260206004820152602260248201527f45524332303a206275726e20616d6f756e7420657863656564732062616c616e604482015261636560f01b60648201526084016105bf565b6001600160a01b0383166000818152602081815260408083208686039055600280548790039055518581529192917fddf252ad1be2c89b69c2b068fc378daa952ba7f163c4a11628f55a4df523b3ef9101610900565b600580546001600160a01b03838116610100818102610100600160a81b031985161790945560405193909204169182907f8be0079c531659141344cd1fd0a4f28419497f9722a3daafe3b4186f6b6457e090600090a35050565b610f76611129565b6005805460ff191660011790557f62e78cea01bee320cd4e420270b5ea74000d11b0c9f74754ebdbfc544b05a258610cf63390565b606060ff8314610fc557610fbe8361116f565b90506103d8565b818054610fd190611636565b80601f0160208091040260200160405190810160405280929190818152602001828054610ffd90611636565b801561104a5780601f1061101f5761010080835404028352916020019161104a565b820191906000526020600020905b81548152906001019060200180831161102d57829003601f168201915b505050505090506103d8565b6001600160a01b03811660009081526008602052604090208054600181018255905b50919050565b60006103d861108b610b36565b8360405161190160f01b8152600281019290925260228201526042902090565b60008060006110bc878787876111ae565b915091506110c981611272565b5095945050505050565b6110db611129565b505050565b60055460ff166104435760405162461bcd60e51b815260206004820152601460248201527314185d5cd8589b194e881b9bdd081c185d5cd95960621b60448201526064016105bf565b60055460ff16156104435760405162461bcd60e51b815260206004820152601060248201526f14185d5cd8589b194e881c185d5cd95960821b60448201526064016105bf565b6060600061117c836113bc565b604080516020808252818301909252919250600091906020820181803683375050509182525060208101929092525090565b6000807f7fffffffffffffffffffffffffffffff5d576e7357a4501ddfe92f46681b20a08311156111e55750600090506003611269565b6040805160008082526020820180845289905260ff881692820192909252606081018690526080810185905260019060a0016020604051602081039080840390855afa158015611239573d6000803e3d6000fd5b5050604051601f1901519150506001600160a01b03811661126257600060019250925050611269565b9150600090505b94509492505050565b60008160048111156112865761128661168b565b0361128e5750565b60018160048111156112a2576112a261168b565b036112ef5760405162461bcd60e51b815260206004820152601860248201527f45434453413a20696e76616c6964207369676e6174757265000000000000000060448201526064016105bf565b60028160048111156113035761130361168b565b036113505760405162461bcd60e51b815260206004820152601f60248201527f45434453413a20696e76616c6964207369676e6174757265206c656e6774680060448201526064016105bf565b60038160048111156113645761136461168b565b036104655760405162461bcd60e51b815260206004820152602260248201527f45434453413a20696e76616c6964207369676e6174757265202773272076616c604482015261756560f01b60648201526084016105bf565b600060ff8216601f8111156103d857604051632cd44ac360e21b815260040160405180910390fd5b6000815180845260005b8181101561140a576020818501810151868301820152016113ee565b506000602082860101526020601f19601f83011685010191505092915050565b60208152600061143d60208301846113e4565b9392505050565b80356001600160a01b038116811461145b57600080fd5b919050565b6000806040838503121561147357600080fd5b61147c83611444565b946020939093013593505050565b60008060006060848603121561149f57600080fd5b6114a884611444565b92506114b660208501611444565b9150604084013590509250925092565b6000602082840312156114d857600080fd5b5035919050565b6000602082840312156114f157600080fd5b61143d82611444565b60ff60f81b881681526000602060e08184015261151a60e084018a6113e4565b838103604085015261152c818a6113e4565b606085018990526001600160a01b038816608086015260a0850187905284810360c0860152855180825283870192509083019060005b8181101561157e57835183529284019291840191600101611562565b50909c9b505050505050505050505050565b600080600080600080600060e0888a0312156115ab57600080fd5b6115b488611444565b96506115c260208901611444565b95506040880135945060608801359350608088013560ff811681146115e657600080fd5b9699959850939692959460a0840135945060c09093013592915050565b6000806040838503121561161657600080fd5b61161f83611444565b915061162d60208401611444565b90509250929050565b600181811c9082168061164a57607f821691505b60208210810361107857634e487b7160e01b600052602260045260246000fd5b808201808211156103d857634e487b7160e01b600052601160045260246000fd5b634e487b7160e01b600052602160045260246000fdfea26469706673582212208fdc8794ea3626e2f0d64aeb5a5bfbe792c1ac20e5e4579e1ec89a289ed799ba64736f6c63430008130033",
  "immutableReferences": {
    "2221": [
      {
        "length": 32,
        "start": 2967
      }
    ],
    "2223": [
      {
        "length": 32,
        "start": 2925
      }
    ],
    "2225": [
      {
        "length": 32,
        "start": 2883
      }
    ],
    "2227": [
      {
        "length": 32,
        "start": 3048
      }
    ],
    "2229": [
      {
        "length": 32,
        "start": 3088
      }
    ],
    "2232": [
      {
        "length": 32,
        "start": 1227
      }
    ],
    "2235": [
      {
        "length": 32,
        "start": 1270
      }
    ]
  },
  "source": "// SPDX-License-Identifier: MIT\r\npragma solidity ^0.8.19;\r\n\r\nimport \"@openzeppelin/contracts/token/ERC20/ERC20.sol\";\r\nimport \"@openzeppelin/contracts/token/ERC20/extensions/ERC20Burnable.sol\";\r\nimport \"@openzeppelin/contracts/security/Pausable.sol\";\r\nimport \"@openzeppelin/contracts/access/Ownable.sol\";\r\nimport \"@openzeppelin/contracts/token/ERC20/extensions/ERC20Permit.sol\";\r\n\r\n/// @custom:security-contact spetrosyan@codeblock.pro\r\ncontract TetherUSD is ERC20, ERC20Burnable, Pausable, Ownable, ERC20Permit {\r\n    constructor() ERC20(\"Tether USD\", \"USDT\") ERC20Permit(\"Tether USD\") {\r\n        _mint(msg.sender, 21000000 * 10 ** decimals());\r\n    }\r\n\r\n    function pause() public onlyOwner {\r\n        _pause();\r\n    }\r\n\r\n    function unpause() public onlyOwner {\r\n        _unpause();\r\n    }\r\n\r\n    function mint(address to, uint256 amount) public onlyOwner {\r\n        _mint(to, amount);\r\n    }\r\n\r\n    function _beforeTokenTransfer(address from, address to, uint256 amount)\r\n        internal\r\n        whenNotPaused\r\n        override\r\n    {\r\n        super._beforeTokenTransfer(from, to, amount);\r\n    }\r\n\r\n    function decimals() override public pure returns (uint8) {\r\n        return 6;\r\n    }\r\n}\r\n",
  "sourcePath": "C:\\xampp\\htdocs\\blockchain_projects\\erc20\\contracts\\TetherUSD.sol",
  "compiler": {
    "name": "solc",
    "version": "0.8.19+commit.7dd6d404.Emscripten.clang"
  },
  "schemaVersion": "3.4.11",
  "updatedAt": "2023-08-04T13:46:10.021Z",
  "networkType": "ethereum",
  "devdoc": {
    "custom:security-contact": "spetrosyan@codeblock.pro",
    "events": {
      "Approval(address,address,uint256)": {
        "details": "Emitted when the allowance of a `spender` for an `owner` is set by a call to {approve}. `value` is the new allowance."
      },
      "EIP712DomainChanged()": {
        "details": "MAY be emitted to signal that the domain could have changed."
      },
      "Paused(address)": {
        "details": "Emitted when the pause is triggered by `account`."
      },
      "Transfer(address,address,uint256)": {
        "details": "Emitted when `value` tokens are moved from one account (`from`) to another (`to`). Note that `value` may be zero."
      },
      "Unpaused(address)": {
        "details": "Emitted when the pause is lifted by `account`."
      }
    },
    "kind": "dev",
    "methods": {
      "DOMAIN_SEPARATOR()": {
        "details": "See {IERC20Permit-DOMAIN_SEPARATOR}."
      },
      "allowance(address,address)": {
        "details": "See {IERC20-allowance}."
      },
      "approve(address,uint256)": {
        "details": "See {IERC20-approve}. NOTE: If `amount` is the maximum `uint256`, the allowance is not updated on `transferFrom`. This is semantically equivalent to an infinite approval. Requirements: - `spender` cannot be the zero address."
      },
      "balanceOf(address)": {
        "details": "See {IERC20-balanceOf}."
      },
      "burn(uint256)": {
        "details": "Destroys `amount` tokens from the caller. See {ERC20-_burn}."
      },
      "burnFrom(address,uint256)": {
        "details": "Destroys `amount` tokens from `account`, deducting from the caller's allowance. See {ERC20-_burn} and {ERC20-allowance}. Requirements: - the caller must have allowance for ``accounts``'s tokens of at least `amount`."
      },
      "decimals()": {
        "details": "Returns the number of decimals used to get its user representation. For example, if `decimals` equals `2`, a balance of `505` tokens should be displayed to a user as `5.05` (`505 / 10 ** 2`). Tokens usually opt for a value of 18, imitating the relationship between Ether and Wei. This is the default value returned by this function, unless it's overridden. NOTE: This information is only used for _display_ purposes: it in no way affects any of the arithmetic of the contract, including {IERC20-balanceOf} and {IERC20-transfer}."
      },
      "decreaseAllowance(address,uint256)": {
        "details": "Atomically decreases the allowance granted to `spender` by the caller. This is an alternative to {approve} that can be used as a mitigation for problems described in {IERC20-approve}. Emits an {Approval} event indicating the updated allowance. Requirements: - `spender` cannot be the zero address. - `spender` must have allowance for the caller of at least `subtractedValue`."
      },
      "eip712Domain()": {
        "details": "See {EIP-5267}. _Available since v4.9._"
      },
      "increaseAllowance(address,uint256)": {
        "details": "Atomically increases the allowance granted to `spender` by the caller. This is an alternative to {approve} that can be used as a mitigation for problems described in {IERC20-approve}. Emits an {Approval} event indicating the updated allowance. Requirements: - `spender` cannot be the zero address."
      },
      "name()": {
        "details": "Returns the name of the token."
      },
      "nonces(address)": {
        "details": "See {IERC20Permit-nonces}."
      },
      "owner()": {
        "details": "Returns the address of the current owner."
      },
      "paused()": {
        "details": "Returns true if the contract is paused, and false otherwise."
      },
      "permit(address,address,uint256,uint256,uint8,bytes32,bytes32)": {
        "details": "See {IERC20Permit-permit}."
      },
      "renounceOwnership()": {
        "details": "Leaves the contract without owner. It will not be possible to call `onlyOwner` functions. Can only be called by the current owner. NOTE: Renouncing ownership will leave the contract without an owner, thereby disabling any functionality that is only available to the owner."
      },
      "symbol()": {
        "details": "Returns the symbol of the token, usually a shorter version of the name."
      },
      "totalSupply()": {
        "details": "See {IERC20-totalSupply}."
      },
      "transfer(address,uint256)": {
        "details": "See {IERC20-transfer}. Requirements: - `to` cannot be the zero address. - the caller must have a balance of at least `amount`."
      },
      "transferFrom(address,address,uint256)": {
        "details": "See {IERC20-transferFrom}. Emits an {Approval} event indicating the updated allowance. This is not required by the EIP. See the note at the beginning of {ERC20}. NOTE: Does not update the allowance if the current allowance is the maximum `uint256`. Requirements: - `from` and `to` cannot be the zero address. - `from` must have a balance of at least `amount`. - the caller must have allowance for ``from``'s tokens of at least `amount`."
      },
      "transferOwnership(address)": {
        "details": "Transfers ownership of the contract to a new account (`newOwner`). Can only be called by the current owner."
      }
    },
    "version": 1
  },
  "userdoc": {
    "kind": "user",
    "methods": {},
    "version": 1
  }
}